:020000040800F2
:10000000B80600208901000891010008930100084A
:100010009501000897010008990100080000000000
:100020000000000000000000000000009B0100082C
:100030009D010008000000009F010008A1010008C8
:10004000A3010008A3010008A3010008A301000800
:10005000A3010008A3010008E5020008010300084D
:10006000A3010008A3010008A3010008A3010008E0
:10007000A3010008A3010008A3010008A3010008D0
:10008000A3010008A3010008A3010008A3010008C0
:10009000A3010008A3010008A3010008A3010008B0
:1000A000A301000891070008A3010008A3010008AC
:1000B0001D08000885080008A3010008A301000826
:1000C000A3010008A3010008A3010008A301000880
:1000D000A3010008DD080008A30100083509000895
:1000E000A3010008A3010008A301000800F002F822
:1000F00000F03AF80AA090E8000C82448344AAF188
:100100000107DA4501D100F02FF8AFF2090EBAE885
:100110000F0013F0010F18BFFB1A43F0010318473B
:100120007418000094180000103A24BF78C878C1F1
:10013000FAD8520724BF30C830C144BF04680C60ED
:10014000704700000023002400250026103A28BF35
:1001500078C1FBD8520728BF30C148BF0B60704739
:100160001FB51FBD10B510BD00F044F81146FFF7D4
:10017000F7FF00F071FD00F062F803B4FFF7F2FF43
:1001800003BC00F065F800000948804709480047B3
:10019000FEE7FEE7FEE7FEE7FEE7FEE7FEE7FEE737
:1001A000FEE7FEE704480549054A064B7047000094
:1001B00031070008ED000008B8000020B806002054
:1001C000B8020020B802002070477047704710B591
:1001D00000F008F8006810BD10B5044600F002F801
:1001E000046010BD00487047580000200048704768
:1001F000580000207546FFF7F9FFAE460500694636
:10020000534620F00700854618B020B5FFF7CAFF17
:10021000BDE820404FF000064FF000074FF0000807
:100220004FF0000B21F00701AC46ACE8C009ACE888
:10023000C009ACE8C009ACE8C0098D46704710B5EC
:100240000446AFF300802046BDE81040FFF795BF9D
:1002500001491820ABBEFEE72600020070470000EF
:1002600010B5104890F84210223000F01DF80446F6
:100270000C4890F8422090F84200401CC3B2094854
:1002800080F8423022308454210A223890F84220EB
:1002900090F84200401CC3B2024880F8423022303D
:1002A000815410BD1400002030B502460B464FF6B5
:1002B000FF70002112E0545C604008240AE000F066
:1002C000010525B140104AF20105684000E04010E8
:1002D000651EECB2002CF2D14C1CE1B29942EADB73
:1002E00030BD000001200449086004480068401C3B
:1002F000024908607047000014040140000000201B
:1003000002200449086001200349088000200349B5
:100310000880704714040140002C01400C000020AC
:1003200010B55748806944F60D0108435449886167
:100330000846C069534908435149C86140F2222028
:10034000514908604FF49660091D08604F485049B4
:1003500008604FF48040091D08604E48806840F0F6
:1003600010004C4988604C48006840F002004A493F
:10037000086049480C38006840F0020046490C39D2
:10038000086040F29F5045490880012043492039C8
:10039000088042492C3908804148008840F010000C
:1003A0003F4908803E481830008840F060003C49D2
:1003B0001831088041F6901039492C31088000200E
:1003C00037493431088001203549203108803448CC
:1003D000008840F00100324908802E48806840F0D3
:1003E00001002C4988602C48006840F001002A492F
:1003F000086029480C38006840F0010026490C3993
:10040000086041F61F4009050885632088850120A2
:100410008881088040F2CF202249088040F22310D2
:10042000091D088001201F491C3908801D492839F1
:10043000088041F64C501C49088042F22C00091DEE
:10044000088040F6A6601949088042F22400091D80
:100450000880062000F05AFB072000F057FB192007
:1004600000F054FB1C2000F051FB1D2000F04EFB5F
:10047000252000F04BFB272000F048FB62B610BDA2
:100480000010024007000400000801404400000B77
:10049000000C0140000001400C0401402C2C0140E4
:1004A0000008004028040040083801400848004087
:1004B000F0B5554890F82100042800DCF0BD524802
:1004C0004078012800D0F9E74F4890F82100801EBD
:1004D000C1B24D48401CFFF7E7FE0546EAB24A4864
:1004E00090F82100801E4849491C085C824207D1CF
:1004F000481E90F82100401E085CB0EB152F00D07C
:10050000DCE741488078042874D13F480179C078FD
:1005100041EA00263C488179407941EA0024012ED5
:1005200003DD022000F076F8C8E7022C00DC1CB9DD
:10053000022000F06FF8C1E73019022803DD022025
:1005400000F068F8BAE701202F4981F82200084638
:10055000817880F823106006010E2B4880F8241063
:10056000032180F8421030463DE0E0B92749098870
:100570000A12254991F8423091F84210491CCFB235
:10058000214981F842702231CA5420490A781E4913
:1005900091F8423091F84210491CCFB21A4981F8C3
:1005A00042702231CA5401281CD1194909880A1203
:1005B000154991F8423091F84210491CCFB21249C6
:1005C00081F842702231CA5411490A780E4991F8D3
:1005D000423091F84210491CCFB20B4981F8427069
:1005E0002231CA54401C31198142BEDCFFF738FE6B
:1005F00004E0FFE7012000F00DF85FE7FFF730FEB1
:1006000000F050F900BF59E714000020040000205A
:100610000600002010B5044601200A4981F8220096
:10062000084680788030C1B2064880F8231080F8F0
:100630002440032180F84210FFF712FE00F032F947
:1006400010BD00001400002010B500F001F810BD2E
:100650000CB50020019000903348006840F48030D1
:100660003149086000BF3048006800F40030009055
:100670000198401C0190009818B90198B0F5A06F3E
:10068000F1D12948006800F4003010B10120009039
:1006900001E0002000900098012843D12348006821
:1006A00040F01000214908600846006820F007006B
:1006B00008600846006840F0020008601A48406878
:1006C000194948600846406848600846406840F458
:1006D000806048600846406820F47C104860084606
:1006E000406840F4E81048600846006840F08070B8
:1006F000086000BF0C48006800F000700028F9D0C6
:100700000948406820F003000749486008464068EF
:1007100040F00200486000BF0348406800F00C0051
:100720000828F9D10CBD0000001002400020024052
:1007300010B51348006840F00100114908600846F0
:100740004068104908400E494860084600680E4954
:1007500008400B4908600846006820F480200860C3
:100760000846406820F4FE0048604FF41F0088608F
:10077000FFF76AFF4FF000600449086010BD0000F9
:10078000001002400000FFF8FFFFF6FE08ED00E059
:100790001848008820F00100164908801648008893
:1007A000401C154908801548008820B94FF4E02006
:1007B000134908601CE010480088124909888842E3
:1007C00003D111480E49086012E00B4800880F4918
:1007D0000988884203D10E480949086008E00648A4
:1007E00000880C490988884202D10B4804490860F6
:1007F00070470000102C01400C0000200600002073
:10080000100801400E00002001000600100000202A
:1008100002000500120000200400030000214FF038
:10082000804211821349096801EBC10202EB0111F8
:100830004FF6FF7202EA81010F4A118000210D4A32
:1008400011600D490988A1F5FA610C4A12885143DB
:1008500043F6982291FBF2F008490988884202DDAC
:100860000649088802E0002800DA0020044A1080C7
:1008700070470000000000200400002090190008CC
:100880003408004000200549088005480078012808
:1008900002D1022002490870704700001004004095
:1008A0001400002000200DE000BF0A49098801F073
:1008B00080010029F9D00849095C064A121D1180FF
:1008C000411CC8B20449223991F842108142EBDC44
:1008D0007047000000380140360000200021124A15
:1008E000118012490988C8B21149097839B9012122
:1008F0000F4A117000220E4981F8212004E00C49B2
:100900000978022900D17047094991F82120491C32
:100910008854491E91F82110491CCAB2044981F833
:10092000212000BFEFE7000024040040043801400C
:10093000140000202DE9FF5F6448008800F0FF0AE2
:10094000BAF1300F02DBBAF1390F01DDBDE8FF9FCC
:100950005F48007810B900205E490880AAF1300095
:100960005C49098801EB810100EB4100594908808D
:1009700057480078401C56490870084600780328FC
:100980007ED10020087053480088B0F5967F03DDC3
:100990004FF496704F4908804F4800884D490988A8
:1009A000884200D1D2E74B4800884B49088008466E
:1009B000008800F093FD4949019000F0A3FD8346B3
:1009C0004FF07E5100F0FCFE029000F0B7F803906B
:1009D00000F02EFC8046424A424B00F041FA0646A7
:1009E0004FF04042404B00F065F9044600F00AFA2F
:1009F00080B24FF47A7190FBF1F201FB12003B4997
:100A000008803548008800F069FD3449019000F005
:100A100079FD83464FF07E5100F0D2FE029000F047
:100A20008DF8039000F004FC06462D4A2D4B00F093
:100A300017FA044600222E4B00F03CF9804600F0E5
:100A4000E1F980B24FF47A7190FBF1F201FB1200F0
:100A5000284908802048008800F040FD1F49019087
:100A600000F050FD83464FF07E5100F0A9FE814614
:100A700000F064F8804600F0DBFB0646184A00E010
:100A800021E0184B00F0ECF9044600221A4B00F06C
:100A900011F9CDE9020100F0B5F980B24FF47A7195
:100AA00090FBF1F201FB1200144908804FF4E020A2
:100AB000134908600020134908801348008820F07B
:100AC00001001149088000BF40E7000004480040D1
:100AD0000A0000200800002006000020118C833B43
:100AE000295C8FC2F5E4634054D554400E000020C9
:100AF000AC0A7A40100000200070874012000020ED
:100B0000100801400C000020002C014000280DDBE3
:100B100000BF00BF00F01F02012191404209920076
:100B200002F1E022C2F8001100BF00BF70470121AE
:100B300000F0EDBE0021084600F00EBC2DE9F041AA
:100B400004464FF01A4000EB4400B0F1C85F204665
:100B500055D84FF0FC41B1EB440F1CD224F00040BB
:100B60004FF07E5100F09AFD4FF0FF3100F0CFFEC4
:100B7000054600F089F814F0004F1DBF2C4F2D4E94
:100B800080F00040002708BF3E464FF0404100F093
:100B9000B9FC044605E0284F284E014600F0B2FC9F
:100BA00005462749284600F0ADFC264900F06CFBBD
:100BB000294600F0A7FC244900F066FB294600F016
:100BC000A1FC224900F060FB294600F09BFC204973
:100BD00000F05AFB80462946204600F093FC41462F
:100BE00000F090FC05463146204600F057FD2946AE
:100BF00000F0E6FD3946BDE8F04100F045BB4FF09E
:100C0000CC41B1EB440F84BF1248BDE8F0814FF0F6
:100C10007F41B1EB440F03D2BDE8F041FFF787BF3E
:100C20000120FFF7D9FABDE8F041FFF783BF0000CC
:100C30000000494022AA7D3A0000C93F22AAFD399E
:100C400024FE1C3DC78AD83C1E67383D1B93993D46
:100C5000AFAA2A3EDB0FC93FFFF762FB002109481C
:100C600080F8211080F8421000200649087008E042
:100C700004480078022804D1FFF71AFC002001493B
:100C80000870F5E71400002070B5054600F010FD6F
:100C9000044620F00040C0F1FF40C00F08D025F00E
:100CA0000040C0F1FF40C00F04BF0120FFF794FADD
:100CB000204670BD10B591EA030F48BF83F0004392
:100CC00000F1D481841A71EB030C05D2121943EBA5
:100CD0000C03001B61EB0C01DFF824E14FEA115417
:100CE000A4EB135C1EEA430F18BF9EEA445F73D067
:100CF00023EA0E03DCF1200E21EA045143F48013B1
:100D000032D322FA0CFE10EB0E0023FA0CFE41EB5C
:100D10000E01CCF1200E03FA0EFE10EB0E0051F185
:100D20000001B1F5801FCCF1200E32D201EB04514D
:100D300012FA0EF2BDE8104058BF7047401C38BF91
:100D40005FEA420218BF7047002814BF20F001007C
:100D500041F100014FEA410313F5001F38BF70470E
:100D6000A1F1C04100F074B9012A43EB0302ACF1D8
:100D7000200CDCF11F0E32BF4FF0000E23FA0CF3F3
:100D800010EB030041EB0451B4EB115FD0D0A1EBA9
:100D9000045101F5801149085FEA300001EB04516C
:100DA0000ED350F1000038BF12FA0EFE08D1BDE894
:100DB0001040C9E7401C38BF5FEA4202CAD1C3E70E
:100DC000BDE810404FEA410313F5001F38BF7047DC
:100DD000A1F1C04100F03CB99EEA445F08D011EA9D
:100DE0005E0FBDE8104004BF01F0004100207047D5
:100DF000BDE8104070B500F0DDF800BF64FBBE3EFA
:100E00000000E0FF4FEA1153A3F58063D3F11E0306
:100E1000A8BFD3F1200C08DB4FF0004242EAC12208
:100E200052EA505232FA03F0704709420BD4102BA9
:100E3000C4BF0020704703F5787CBCF1FF3F05D0AC
:100E40004FF0FF3070474FF00000704770B500F072
:100E5000B1F800BF4992248000207047F0E70000FD
:100E6000DFF848C170B51CEA111E1EBF1CEA13153D
:100E70009EEA0C0F95EA0C0F00F06F8081EA0304E4
:100E800023EA4C134EEAD47E21EA4C1141F480113E
:100E900043F48013AE44A1FB024CA0FB0365AEF10A
:100EA0007F7E361955EB0C05A1FB034C4CF100037A
:100EB000A0FB021C16EB0C06654153F1000309422E
:100EC00018BF46F0010613F4007F0BD14FEA03313F
:100ED0004FEA0530340341EA155140EA16506FF0ED
:100EE00003020AE04FEAC3214FEAC520F40241EAB7
:100EF000555140EA56506FF0020202EB2E4201EBD0
:100F0000025585EACE710AD05FEA440C18BF24F07E
:100F1000004450F1000041F1000120EAD47040F299
:100F2000FE7C624500D270BDA84214BF4FF08044E1
:100F30004FF04044002E08BF0024BEF1806FA8BFD0
:100F4000A1F1C041BDE8704080F282804FF0000006
:100F500001F1C04101F0004170479EEA0C0F0CEA1C
:100F6000131518BF95EA0C0F06D04FF0000081EA68
:100F7000030E0EF0004170BD00F01CF88900013E28
:100F800000F007B800F009B84FEA430C5FEA5C5C78
:100F900008D081EA030100F05BB84FEA410C5FEA38
:100FA0005C5CF6D14FF00000014970470000FF077C
:100FB0000000F87F0EF1020E2EF0030E5EF8046BB7
:100FC000364205D4012A43EB030515F5001F12D85C
:100FD000012841EB010C1CF5001F0CD80ED14FEA83
:100FE000D17C15F5001F0CEB4C0C0CF1020C08BF6A
:100FF0004CEBD37C04E04FF0080C01E04FEAD37CCB
:101000000CEB4C0526FA05F606F00706B6F1040CC3
:1010100006D20EEB860CBDE870404CF0010C604728
:10102000DFE80CF0090B02024FF000414FF0000026
:10103000A1F5002170BD19461046012851EB0104AD
:1010400018BFD4F5001484BF002001F0004170BD2A
:101050000808A0F500114FEA3101704710B591EA78
:10106000030F48BF83F000433FF52CAE841A71EBA9
:10107000030C07D212198CF0004C43EB0C03001B3D
:1010800061EB0C01DFF8A4E14FEA1154A4EB135C0F
:101090001EEA430F18BF9EEA445F00F0B08023EAC7
:1010A0006E03524221EA0451C3EB6E0338BF5B1E4C
:1010B000DCF1200E25D322FA0CFE10EB0E0043FAD1
:1010C0000CFE41EB0E01CCF1200E03FA0EFE10EBEC
:1010D0000E0051F10001CCF1200E29D412FA0EF2CB
:1010E00001EB0451BDE8104058BF7047401C1CBFC5
:1010F000B2F1004F704700280CBF491C20F00100DE
:10110000704712EB020E43EB030218BF4FF0010EC3
:101110004EEA4202ACF1200CDCF11E0E54D943FA27
:101120000CFE10EB0E0051F1FF31CCF11E0ED5D5A7
:101130000EF1010E12FA0EFE404141EB010101EBEE
:10114000445C5FEA5C5C10D910EBDE7001EB04518B
:1011500038BFBEF1004FBDE8104018BF70470028EF
:101160000CBF491C20F00100704730D24FEAD42C4C
:1011700011F5001124F400641BD0B1FA81F20B3A8E
:10118000A41AA41ED2F12003914030FA03F31943AC
:10119000904001EBCC71002C01EB0451BDE81040F4
:1011A000A8BF704701F1C0414FF0000001F00041BD
:1011B0007047B0FA80F310FA03F100D110BDE41AC1
:1011C000173C4805C90AE4E701EB045110BD49107A
:1011D00001EB0451BDE810404FEA300002E04FF04F
:1011E000000170474A0008BF0042F8D0B2F5001F66
:1011F00028BF704701F000414FF0000070479EEAA1
:10120000445F07D011EA5E0FBDE8104004BF002123
:1012100000207047BDE8104070B5FFF7CBFE00BF5F
:1012200040DFF63E83F00041104670470000E0FFCB
:1012300043004FEAD30C4FEA3C0C43401FBF40072A
:101240000CF1605113F0FE4F70471CF0006F03D19A
:1012500000200CF0004170470CF0004343EA50704E
:1012600010B540EACC0000F0CEF900BF00000092BB
:101270004FEA0001FFF7ECBE4FF000414FF00000D5
:10128000A1F500217047000090EA010F48BF81F0EE
:10129000004100F19C82421A3CBF801A89184FEA33
:1012A000D0524FF07F4C1CEA410FA2EBD15318BF34
:1012B0009CEA026F00F03B804FF0004C4CEA0020AB
:1012C0004CEA012121FA03FC10EB0C0C1ED202F1B6
:1012D000FF325FEA1C2040EBC25038BF70471CF061
:1012E0007F0F4FEA400C18BFBCF17F4F38BF7047EB
:1012F000C3F12003994008BF20F00100BCF17F4FEB
:1013000038BF7047A0F1C04000F0C3B94FEA3C00BD
:10131000000A40EBC25028BF1CF0FF0F4FEA400C00
:10132000E6D018BFBCF17F4F38BF7047EAE79CEAB0
:10133000026F05D010EA5C0F08BF00F00040704754
:1013400010B500F060F900BF64FBBE3E014800F03C
:10135000ACBA00BF0000C07F4FF47F0C1CEAD01273
:101360001EBF1CEAD11392EA0C0F93EA0C0F00F097
:10137000858090EA010F48BF42F4807240F4000C6F
:1013800041F400002CF07F4120F07F4000B5814205
:10139000A2EB03020FF2081CACEB504EC0F10000B0
:1013A0009EF800E04FEA4E0E00FB0EFC38BF4900ED
:1013B0004FEA2C1C02F5FA020CFB0EF34FEACE1E8C
:1013C0004FEA112C4FEAC1210EEB635E42EB224241
:1013D0000EFB0CFC4FEA1C5300FB03114FEA112CCF
:1013E0004FEA01310EFB0CFC4FEADC4C00FB0C1108
:1013F000C14228BF09184CEB03335DF804EB10EB36
:10140000410143EBC250B2F57C0F38BF704729D57C
:1014100012F0F00F1CBF00F1C04000F00040704718
:10142000008182838485868788898B8C8D8E8F91BD
:101430009293959697999A9C9D9FA0A2A3A5A7A8E1
:10144000AAACAEB0B2B3B5B7B9BCBEC0C2C5C7C90D
:10145000CCCED1D4D7D9DCDFE2E6E9ECF0F3F7FA71
:10146000FE0000004FEA400C0CF1807CBCF17E4F86
:1014700028BF7047B0F1C04000F00BB990EA010FEF
:101480000CEAD11348BF42F48072624538BF63450D
:1014900007D213F47F0F16D080EA010000F000405D
:1014A000704710B500F0AFF8097EFC3E00F005B8BB
:1014B00080EA010000F00040704780EA010000F07F
:1014C000004000F0E6B812F47F0F04BF02487047F6
:1014D00080EA010000F0DDB80000C07FB0FA80F3C0
:1014E00010FA03F2C3F19D030AD0D90501EB1220D3
:1014F000530638BF704700F1010008BF20F001001B
:10150000704700004FF47F0C1CEAD0121EBF1CEA8B
:10151000D11392EA0C0F93EA0C0F00F0478090EA87
:10152000010F48BF42F480724FF0004C4CEA00209B
:101530004CEA012102EB0302A0FB0113A2F5000219
:10154000002918BF43F001035B0028BF4FEA3303B3
:1015500042EB22425FEA132C4CEBC2502EBFBCEB95
:10156000436FB2F57C0F70474FEA036CBCF1004F3C
:1015700008BF20F00100B2F57C0F38BF70470BD5D3
:1015800082F0FF0212F5803FC8BF704700F1C040F3
:10159000D8BF00F00040704700F5000C5FEA4C0C2B
:1015A00048BF7047B0F1C04000F073B890EA010F37
:1015B0000CEAD11348BF42F48072624538BF6345DC
:1015C00004D280EA010000F00040704710B500F03E
:1015D0001AF800BF8900013E00F007B800F009B812
:1015E0005FEA410C5FEA1C6C08D080EA010000F061
:1015F00050B85FEA400C5FEA1C6CF6D14FF0004037
:10160000A0F5800070470EF1020E2EF0030E5EF87A
:10161000044B244204D44FEA4102B2F17F4F11D867
:101620004FEA4003B3F17F4F0CD80ED14FEAD07C84
:10163000B2F17F4F0CEB4C0C0CF1020C08BF4CEBE1
:10164000D17C04E04FF0080C01E04FEAD17C0CEBB8
:101650004C0324FA03F404F00704B4F1040C06D29A
:101660000EEB840CBDE810404CF0010C6047DFE845
:101670000CF0070802024FF00040A0F5800010BDFA
:101680000846420018BFD2F1807288BF00F00040C7
:1016900010BDFF2141EAD050C005704780F00040E6
:1016A00090EA010F7FF5F7AD81F0004100F08FB8AF
:1016B0004FEAD051002988BFD1F1FF0240F2758076
:1016C00001F17D014FEA002070B5490840F000406B
:1016D00038BF40080EA2430E040CD25C02FB02F39A
:1016E00004FB03F3C3F14043A3FB0254ED0D45EAB1
:1016F000442202FB02F3A0FB03546D42C4F14044B8
:1017000038BF641EA2FB05350023E2FB0453EA0B3D
:1017100042EA4342A0FB023212F14004A2F121034B
:10172000E40903F07F031F2B32D904EBC15070BDD5
:10173000FEFAF7F3F0ECE9E6E4E1DEDCD9D7D4D247
:10174000D0CECCCAC8C6C4C2C1BFBDBCBAB9B7B678
:10175000B4B3B2B0AFAEACABAAA9A8A7A6A4A3A2DB
:10176000A1A09F9E9E9D9C9B9A99989797969594D1
:101770009393929190908F8E8E8D8C8C8B8A8A8988
:101780008988878786868584848383828281818015
:1017900004FB04F6B6EB004603D5E64248BF641CE2
:1017A000C3E7A64258BF641CBFE711F0FF0F02D188
:1017B00000F00040704710B5FFF725FF7FDBFFBE4C
:1017C00090EA010F48BF81F000413FF564AD421A35
:1017D00004D882F00042A0EB020011444FEAD0523C
:1017E0004FF07F4C1CEA410FA2EBD15318BF9CEA8B
:1017F000026F4AD04FF0004C4CEA00204CEA012125
:1018000021FA03FCB0EB0C0C0FD412F0FE0F36D013
:101810005FEA4C001DD5001240EBC25038BF704744
:101820001CF03F0F18BF70470BE0A2F101025FEA06
:101830001C2040EBC25038BF70471CF07F0F18BF10
:101840007047C3F12003994014BF401E20F00100EF
:10185000704780084FEA122308BF7047B0FA80FC37
:10186000A2EB0C02CCF1280C60FA0CF093EA122FD8
:1018700004BF00EBC25070474FEAC3707047130AB1
:101880005FEADC1008BF7047F6E79CEA026F04D0FD
:1018900010EA5C0F08BF0020704710B5FFF7B3FED9
:1018A00040DFF63E81F0004070470CF00F03092B3B
:1018B00008BF082000F051800A2B0BD0082B18BF5E
:1018C000704708BF1CF0400F0AD04FF000004FF0E7
:1018D000000170471CF0400F18BF4FF000407047E8
:1018E0001CF0100F08D020F0704300F07F4242EA55
:1018F000D3014FEA4370704700F0604021F07F420F
:1019000042EA000201F07F4040EA727070474FF0F7
:10191000FF0212EAD0521CBF92F0FF038B42C2BFFB
:10192000D14200EBC1507047002A0AD0002B0BD0E7
:10193000002900F00040A4BF40F0FE4040F4000049
:10194000704700F00040704743024FF00B0C18BF87
:101950004CF0806C7FF4FAAC70471CF4801F11D0FF
:101960001CF4E02F03D06FEACC31490070474FF0F0
:101970004050EFF3008222F0704242EA000282F30C
:10198000008870474FF000007047D00768420100A0
:1019900091190000B4190008000000201400000094
:1019A00028010008C819000814000020A40600003F
:1019B00044010008000000000000000000000000DA
:0819C00000002D017A02C703AB
:04000005080000ED02
:00000001FF
