:020000040800F2
:10000000B80600208901000891010008930100084A
:100010009501000897010008990100080000000000
:100020000000000000000000000000009B0100082C
:100030009D010008000000009F010008A1010008C8
:10004000A3010008A3010008A3010008A301000800
:10005000A3010008A301000875040008910400082A
:10006000A3010008A3010008A3010008A3010008E0
:10007000A3010008A3010008A3010008A3010008D0
:10008000A3010008A3010008A3010008A3010008C0
:10009000A3010008A3010008A3010008A3010008B0
:1000A000A301000845090008A3010008A3010008F6
:1000B000D1090008390A0008A3010008A3010008BB
:1000C000A3010008A3010008A3010008A301000880
:1000D000A3010008C10A0008A3010008190B0008C9
:1000E000A3010008A3010008A301000800F002F822
:1000F00000F03AF80AA090E8000C82448344AAF188
:100100000107DA4501D100F02FF8AFF2090EBAE885
:100110000F0013F0010F18BFFB1A43F0010318473B
:100120003014000050140000103A24BF78C878C181
:10013000FAD8520724BF30C830C144BF04680C60ED
:10014000704700000023002400250026103A28BF35
:1001500078C1FBD8520728BF30C148BF0B60704739
:100160001FB51FBD10B510BD00F044F81146FFF7D4
:10017000F7FF00F019FE00F062F803B4FFF7F2FF9A
:1001800003BC00F065F800000948804709480047B3
:10019000FEE7FEE7FEE7FEE7FEE7FEE7FEE7FEE737
:1001A000FEE7FEE704480549054A064B7047000094
:1001B000E5080008ED000008B8000020B80600209F
:1001C000B8020020B802002070477047704710B591
:1001D00000F008F8006810BD10B5044600F002F801
:1001E000046010BD00487047580000200048704768
:1001F000580000207546FFF7F9FFAE460500694636
:10020000534620F00700854618B020B5FFF7CAFF17
:10021000BDE820404FF000064FF000074FF0000807
:100220004FF0000B21F00701AC46ACE8C009ACE888
:10023000C009ACE8C009ACE8C0098D46704710B5EC
:100240000446AFF300802046BDE81040FFF795BF9D
:1002500001491820ABBEFEE72600020070470000EF
:1002600010B5104890F84210223000F01DF80446F6
:100270000C4890F8422090F84200401CC3B2094854
:1002800080F8423022308454210A223890F84220EB
:1002900090F84200401CC3B2024880F8423022303D
:1002A000815410BD140000202DE9F0418AB00646AB
:1002B0000D4600200990002405E0305D00F070FA42
:1002C00009A90855641CAC4201DA032CF5DB9DF842
:1002D000240080F0FF008DF824009DF8250080F0B8
:1002E000FF008DF825000024B1E0072096E09DF87E
:1002F0002410014101F00103002B7CD0C0F1070262
:1003000002EBC4014A1C06920D320792921C08921D
:10031000069A4FEAE27C02EB5C7C4FEAEC0CCDF8EB
:100320000CC0079A4FEAE27C02EB5C7C4FEAEC0CD3
:10033000CDF810C0089A4FEAE27C02EB5C7C4FEAF1
:10034000EC0CCDF814C0069A4FEAE27C02EB5C7C20
:100350004FEAEC0CA2EBCC0CCCF1070CCDF800C0B2
:10036000079A4FEAE27C02EB5C7C4FEAEC0CA2EBD2
:10037000CC0CCCF1070CCDF804C0089A4FEAE27C13
:1003800002EB5C7C4FEAEC0CA2EBCC0CCCF1070C42
:10039000CDF808C0039A121B0DF1240C1CF80220A2
:1003A0004FF0010CDDF800800CFA08FC82EA0C0228
:1003B000DDF80CC0ACEB040C0DF1240808F80C209F
:1003C000049A121BC4461CF802204FF0010CDDF801
:1003D00004800CFA08FC82EA0C02DDF810C0ACEBD9
:1003E000040C0DF1240808F80C20059A121BC446D1
:1003F0001CF8022000E010E04FF0010CDDF808804E
:100400000CFA08FC82EA0C02DDF814C0ACEB040C18
:100410000DF1240808F80C2000BF401E0028BFF68C
:1004200066AF9DF825008DF824009DF826008DF814
:100430002500E01CA84206DAE11C705C00F0B0F96F
:100440008DF8260002E000208DF82600641CAC42E6
:10045000FFF64BAF00279DF8250000F0A1F947EA11
:1004600000279DF8240000F09BF9074338460AB0A6
:10047000BDE8F08101200449086004480068401C80
:100480000249086070470000140401400000002089
:100490000220044908600120034908800020034924
:1004A0000880704714040140002C01400C0000201B
:1004B00010B55748806944F60D01084354498861D6
:1004C0000846C069534908435149C86140F2222097
:1004D0005149086042F2B040091D08604F48504938
:1004E00008604FF48040091D08604E48806840F065
:1004F00010004C4988604C48006840F002004A49AE
:10050000086049480C38006840F0020046490C3940
:10051000086040F29F504549088001204349203936
:10052000088042492C3908804148008840F010007A
:100530003F4908803E481830008840F060003C4940
:100540001831088041F6901039492C31088000207C
:10055000374934310880012035492031088034483A
:10056000008840F00100324908802E48806840F041
:1005700001002C4988602C48006840F001002A499D
:10058000086029480C38006840F0010026490C3901
:10059000086041F61F400905088563208885012011
:1005A0008881088040F2CF20224908804FF4EA7009
:1005B000091D088001201F491C3908801D49283960
:1005C000088041F64C501C49088042F22C00091D5D
:1005D000088040F6A6601949088042F22400091DEF
:1005E0000880062000F03AFB072000F037FB1920B6
:1005F00000F034FB1C2000F031FB1D2000F02EFB2E
:10060000252000F02BFB272000F028FB62B610BD50
:100610000010024007000400000801404400000BE5
:10062000000C0140000001400C0401402C2C014052
:1006300000080040280400400838014008480040F5
:10064000F0B5544890F82100042800DCF0BD514872
:100650004078012800D0F9E74E4890F82100811E2B
:100660004C48401CFFF720FE0546EAB2494890F886
:100670002100801E4749491C085C824207D1481E60
:1006800090F82100401E085CB0EB152F00D0DDE78C
:1006900040488078042872D13E480179C07841EA08
:1006A00000263C488179407941EA0024012E03DD8F
:1006B000022000F089F8C9E7022C00DC1CB90220F6
:1006C00000F082F8C2E73019022803DD022000F0B2
:1006D0007BF8BBE701202F4981F82200084681788A
:1006E00080F823106006010E2A4880F824100321A8
:1006F00080F8421030463DE0E0B9274909880A12E7
:10070000244991F8423091F84210491CCFB2214956
:1007100081F842702231CA541F490A781D4991F864
:10072000423091F84210491CCFB21A4981F8427008
:100730002231CA5401281CD1184909880A121549C6
:1007400091F8423091F84210491CCFB2114981F81A
:1007500042702231CA5411490A780E4991F8423048
:1007600091F84210491CCFB20A4981F842702231F7
:10077000CA54401C31198142BEDC04E0FFE701206D
:1007800000F022F862E7FFF76BFD00F065F900BFAB
:100790005CE7000014000020040000200600002098
:1007A00010B50146002200200AE041FA00F404F0EE
:1007B0000103C0F1070403FA04F41443E2B2401C3D
:1007C0000828F2DB104610BD10B5044601200A4986
:1007D00081F82200084680788030C1B2064880F84F
:1007E000231080F82440032180F84210FFF738FDE1
:1007F00000F032F910BD00001400002010B500F028
:1008000001F810BD0CB5002001900090334800683D
:1008100040F480303149086000BF3048006800F47F
:10082000003000900198401C0190009818B9019880
:10083000B0F5A06FF1D12948006800F4003010B184
:100840000120009001E0002000900098012843D191
:100850002348006840F010002149086008460068FD
:1008600020F0070008600846006840F002000860B9
:100870001A48406819494860084640684860084678
:10088000406840F4806048600846406820F47C106E
:1008900048600846406840F4E81048600846006830
:1008A00040F08070086000BF0C48006800F00070E5
:1008B0000028F9D00948406820F003000749486043
:1008C0000846406840F00200486000BF03484068A6
:1008D00000F00C000828F9D10CBD00000010024007
:1008E0000020024010B51348006840F00100114993
:1008F000086008464068104908400E4948600846AC
:1009000000680E4908400B4908600846006820F45A
:10091000802008600846406820F4FE0048604FF4DC
:100920001F008860FFF76AFF4FF00060044908600D
:1009300010BD0000001002400000FFF8FFFFF6FEAF
:1009400008ED00E01848008820F0010016490880F2
:1009500016480088401C154908801548008820B9B1
:100960004FF4E020134908601CE010480088124949
:100970000988884203D111480E49086012E00B48EB
:1009800000880F490988884203D10E480949086048
:1009900008E0064800880C490988884202D10B48C3
:1009A0000449086070470000102C01400C00002032
:1009B00006000020100801400E0000200100060083
:1009C00010000020020005001200002004000300B7
:1009D00000214FF0804211821349096801EBC102E6
:1009E00002EB01114FF6FF7202EA81010F4A1180FA
:1009F00000210D4A11600D490988A1F5FA610C4AE0
:100A00001288514343F6982291FBF2F00849098875
:100A1000884202DD0649088802E0002800DA00204A
:100A2000044A1080704700000000002004000020ED
:100A30004C1500083408004000200549088005488E
:100A40000078012802D10220024908707047000096
:100A5000100400401400002008B54FF40060154950
:100A6000086000200DE000BF1349098801F08001F3
:100A70000029F9D01149095C0F4A121D1180411C4F
:100A8000C8B20E49223991F842108142EBDC0020B5
:100A9000009004E0BDF80000401C80B20090BDF85A
:100AA0000000B0F5E17FF5DB4FF000600149086020
:100AB00008BD000010080140003801403600002049
:100AC0000021124A118012490988C8B211490978D7
:100AD00039B901210F4A117000220E4981F82120F5
:100AE00004E00C490978022900D17047094991F8BE
:100AF0002120491C8854491E91F82110491CCAB272
:100B0000044981F8212000BFEFE7000024040040E1
:100B100004380140140000202DE9F04742480088C5
:100B2000C4B2302C01DB392C01DDBDE8F0873F4831
:100B3000007810B900203E490880A4F130003C49FB
:100B4000098801EB810100EB4100394908803748F1
:100B50000078401C3549087008460078032860D1A9
:100B60000020087032480088B0F5967F03DD4FF40E
:100B700096702F4908802F4800882D49098888429F
:100B800000D1D2E72A4800882A4908800846008810
:100B900000F082FA8246284900F092FA81464FF02E
:100BA0007E5100F0EBFB804600F070F807462349C9
:100BB00000F086FA0646224900F024F9054600F0C6
:100BC0004BFA80B24FF47A7190FBF1F201FB120004
:100BD0001C4908800846008800F24D1080B24FF48E
:100BE0007A7190FBF1F201FB120017490880084668
:100BF000008800F24D1080B24FF47A7190FBF1F250
:100C000001FB1200114908804FF4E02010490860F0
:100C10000020104908801048008820F001000E498B
:100C2000088000BF81E70000044800400A0000205F
:100C300008000020060000202597843BAE271F43B4
:100C4000A6AAA6420E0000201000002012000020DC
:100C5000100801400C000020002C014000280DDB92
:100C600000BF00BF00F01F02012191404209920025
:100C700002F1E022C2F8001100BF00BF704701215D
:100C800000F023BC0021084600F024B92DE9F04112
:100C900004464FF01A4000EB4400B0F1C85F204614
:100CA00055D84FF0FC41B1EB440F1CD224F000406A
:100CB0004FF07E5100F0D0FA4FF0FF3100F005FC0C
:100CC000054600F089F814F0004F1DBF2C4F2D4E43
:100CD00080F00040002708BF3E464FF0404100F042
:100CE000EFF9044605E0284F284E014600F0E8F9E8
:100CF00005462749284600F0E3F9264900F082F826
:100D0000294600F0DDF9244900F07CF8294600F07E
:100D1000D7F9224900F076F8294600F0D1F92049A8
:100D200000F070F880462946204600F0C9F9414697
:100D300000F0C6F905463146204600F08DFA2946F6
:100D400000F01CFB3946BDE8F04100F05BB84FF005
:100D5000CC41B1EB440F84BF1248BDE8F0814FF0A5
:100D60007F41B1EB440F03D2BDE8F041FFF787BFED
:100D70000120FFF731FABDE8F041FFF783BF000023
:100D80000000494022AA7D3A0000C93F22AAFD394D
:100D900024FE1C3DC78AD83C1E67383D1B93993DF5
:100DA000AFAA2A3EDB0FC93FFFF782FB00210948AB
:100DB00080F8211080F8421000200649087008E0F1
:100DC00004480078022804D1FFF73AFC00200149CA
:100DD0000870F5E71400002070B5054600F046FAEB
:100DE000044620F00040C0F1FF40C00F08D025F0BD
:100DF0000040C0F1FF40C00F04BF0120FFF7ECF935
:100E0000204670BD90EA010F48BF81F0004100F11B
:100E1000BC82421A3CBF801A89184FEAD0524FF068
:100E20007F4C1CEA410FA2EBD15318BF9CEA026F22
:100E300000F03B804FF0004C4CEA00204CEA0121CE
:100E400021FA03FC10EB0C0C1ED202F1FF325FEA18
:100E50001C2040EBC25038BF70471CF07F0F4FEA98
:100E6000400C18BFBCF17F4F38BF7047C3F120035F
:100E7000994008BF20F00100BCF17F4F38BF704798
:100E8000A0F1C04000F0E3B94FEA3C00000A40EB9B
:100E9000C25028BF1CF0FF0F4FEA400CE6D018BF2D
:100EA000BCF17F4F38BF7047EAE79CEA026F05D07C
:100EB00010EA5C0F08BF00F00040704710B500F06A
:100EC00080F900BF64FBBE3E014800F0CCBA00BF11
:100ED0000000C07F4FF47F0C1CEAD0121EBF1CEA3A
:100EE000D11392EA0C0F93EA0C0F00F0858090EA80
:100EF000010F48BF42F4807240F4000C41F400003E
:100F00002CF07F4120F07F4000B58142A2EB03022C
:100F10000FF2081CACEB504EC0F100009EF800E050
:100F20004FEA4E0E00FB0EFC38BF49004FEA2C1C66
:100F300002F5FA020CFB0EF34FEACE1E4FEA112C1B
:100F40004FEAC1210EEB635E42EB22420EFB0CFC2A
:100F50004FEA1C5300FB03114FEA112C4FEA0131F9
:100F60000EFB0CFC4FEADC4C00FB0C11C14228BF0D
:100F700009184CEB03335DF804EB10EB410143EB34
:100F8000C250B2F57C0F38BF704729D512F0F00F70
:100F90001CBF00F1C04000F0004070470081828318
:100FA0008485868788898B8C8D8E8F919293959678
:100FB00097999A9C9D9FA0A2A3A5A7A8AAACAEB002
:100FC000B2B3B5B7B9BCBEC0C2C5C7C9CCCED1D407
:100FD000D7D9DCDFE2E6E9ECF0F3F7FAFE00000037
:100FE0004FEA400C0CF1807CBCF17E4F28BF70476B
:100FF000B0F1C04000F02BB990EA010F0CEAD11318
:1010000048BF42F48072624538BF634507D213F48B
:101010007F0F16D080EA010000F00040704710B545
:1010200000F0CFF8097EFC3E00F005B880EA010030
:1010300000F00040704780EA010000F0004000F03E
:1010400006B912F47F0F04BF0248704780EA01001E
:1010500000F0FDB80000C07FC10DD1F19E0206DB9B
:101060004FEA002343F0004323FA02F070470042A6
:1010700007D54FEA4001B1F1FE4F02D24FF0000018
:10108000704710B500F09DF8499224800020704709
:101090006FEA200070470000B0FA80F310FA03F204
:1010A000C3F19D030AD0D90501EB1220530638BFC6
:1010B000704700F1010008BF20F0010070470000F8
:1010C0004FF47F0C1CEAD0121EBF1CEAD11392EA27
:1010D0000C0F93EA0C0F00F0478090EA010F48BF15
:1010E00042F480724FF0004C4CEA00204CEA01219F
:1010F00002EB0302A0FB0113A2F50002002918BFB6
:1011000043F001035B0028BF4FEA330342EB224266
:101110005FEA132C4CEBC2502EBFBCEB436FB2F511
:101120007C0F70474FEA036CBCF1004F08BF20F002
:101130000100B2F57C0F38BF70470BD582F0FF027B
:1011400012F5803FC8BF704700F1C040D8BF00F023
:101150000040704700F5000C5FEA4C0C48BF704738
:10116000B0F1C04000F073B890EA010F0CEAD1135F
:1011700048BF42F48072624538BF634504D280EABA
:10118000010000F00040704710B500F01AF800BFF1
:101190008900013E00F007B800F009B85FEA410C91
:1011A0005FEA1C6C08D080EA010000F050B85FEAEA
:1011B000400C5FEA1C6CF6D14FF00040A0F58000B7
:1011C00070470EF1020E2EF0030E5EF8044B24421F
:1011D00004D44FEA4102B2F17F4F11D84FEA4003E5
:1011E000B3F17F4F0CD80ED14FEAD07CB2F17F4FD4
:1011F0000CEB4C0C0CF1020C08BF4CEBD17C04E066
:101200004FF0080C01E04FEAD17C0CEB4C0324FAC0
:1012100003F404F00704B4F1040C06D20EEB840CC2
:10122000BDE810404CF0010C6047DFE80CF0070807
:1012300002024FF00040A0F5800010BD08464200B9
:1012400018BFD2F1807288BF00F0004010BDFF21AE
:1012500041EAD050C005704780F0004090EA010F8D
:101260007FF5D7AD81F0004100F08FB84FEAD05143
:10127000002988BFD1F1FF0240F2758001F17D01A4
:101280004FEA002070B5490840F0004038BF4008E0
:101290000EA2430E040CD25C02FB02F304FB03F328
:1012A000C3F14043A3FB0254ED0D45EA442202FB87
:1012B00002F3A0FB03546D42C4F1404438BF641EE6
:1012C000A2FB05350023E2FB0453EA0B42EA43424A
:1012D000A0FB023212F14004A2F12103E40903F061
:1012E0007F031F2B32D904EBC15070BDFEFAF7F318
:1012F000F0ECE9E6E4E1DEDCD9D7D4D2D0CECCCA3A
:10130000C8C6C4C2C1BFBDBCBAB9B7B6B4B3B2B027
:10131000AFAEACABAAA9A8A7A6A4A3A2A1A09F9E6A
:101320009E9D9C9B9A99989797969594939392914A
:1013300090908F8E8E8D8C8C8B8A8A8989888787F6
:1013400086868584848383828281818004FB04F67F
:10135000B6EB004603D5E64248BF641CC3E7A6428D
:1013600058BF641CBFE711F0FF0F02D100F000402E
:10137000704710B5FFF725FF7FDBFFBE90EA010F36
:1013800048BF81F000413FF544AD421A04D882F0D5
:101390000042A0EB020011444FEAD0524FF07F4CC4
:1013A0001CEA410FA2EBD15318BF9CEA026F4AD04E
:1013B0004FF0004C4CEA00204CEA012121FA03FCDA
:1013C000B0EB0C0C0FD412F0FE0F36D05FEA4C00DD
:1013D0001DD5001240EBC25038BF70471CF03F0FC4
:1013E00018BF70470BE0A2F101025FEA1C2040EB3E
:1013F000C25038BF70471CF07F0F18BF7047C3F151
:101400002003994014BF401E20F00100704780085F
:101410004FEA122308BF7047B0FA80FCA2EB0C021F
:10142000CCF1280C60FA0CF093EA122F04BF00EB09
:10143000C25070474FEAC3707047130A5FEADC106E
:1014400008BF7047F6E79CEA026F04D010EA5C0F11
:1014500008BF0020704710B5FFF7B3FE40DFF63E2F
:1014600081F0004070470CF00F03092B08BF0820E3
:1014700000F051800A2B0BD0082B18BF704708BF13
:101480001CF0400F0AD04FF000004FF000017047F1
:101490001CF0400F18BF4FF0004070471CF0100FB9
:1014A00008D020F0704300F07F4242EAD3014FEAB7
:1014B0004370704700F0604021F07F4242EA000232
:1014C00001F07F4040EA727070474FF0FF0212EA6D
:1014D000D0521CBF92F0FF038B42C2BFD14200EB3F
:1014E000C1507047002A0AD0002B0BD0002900F011
:1014F0000040A4BF40F0FE4040F40000704700F000
:101500000040704743024FF00B0C18BF4CF0806C4A
:101510007FF4DAAC70471CF4801F11D01CF4E02F6C
:1015200003D06FEACC31490070474FF04050EFF3E1
:10153000008222F0704242EA000282F30088704783
:101540004FF000007047D007684201009119000079
:101550007015000800000020140000002801000899
:101560008415000814000020A406000044010008AF
:1015700000000000000000000000000000002D013D
:041580007A02C70321
:04000005080000ED02
:00000001FF
